:020000040000fa
:080000000004040000000000f0
:020000040000fa
:100800002fe0200080ff270000018800000000008a
:10081000050007000c000700d004020000000000e3
:100820000040da000000fe004440a9000000200063
:100830000000e0000300320000002000a00188005a
:100840004440a80000000600e082200001002000d3
:100850001600370062004000e080480091018800e7
:100860009001ba0062004000e080480091018800d9
:100870009002ba0062004000e08048000002eb00f5
:100880006028e10005003a008301e9000700330019
:10089000038009000059eb00040037006128e100e3
:1008a000010032000082eb00050007009101880082
:1008b0001001ba000200e000e6ff3a000000050067
:1008c000910188008002780062004000e0804800ca
:1008d0003559ba008301e900080032002559ba00f1
:1008e0008301e900050032000400e000f4ff32005b
:1008f00015d9ba008301e900f1ff3a0000000600b3
:10090000900188008100780000000600003b88000c
:1009100050052000303b8800a00a2000303b8800b2
:1009200061e7a800000000000000000061e7af00e0
:10093000feff370000000600900188008308bb001e
:100940008288bb0000000600900188001100ba00f8
:100950009180ba0000000600020c040000000000b4
:10096000000006003200f800023b88009001880079
:100970008108bb0050052000303b8800a00a200001
:10098000303b880061e7a800000000000000000084
:1009900061e7af00feff37003200f90000000600fb
:1009a0002200fa0060022000303a880044c7bf00ed
:1009b000f043b20044e7b700417420009140780052
:1009c00000ceb30000c0600044e7b7000000eb00b9
:1009d000403a880040a7a90042c7bf000080fb0042
:1009e0004500de000080fb0061006000e10f500068
:1009f000f9ff3a0000c0200001002000008fbe0077
:100a00009e0078001e009000cfff0700200798008e
:100a1000310798004e4090000004e00001003a00c9
:100a2000cdff07001061a8008500a9009500a9006e
:100a30002e019000be019000f00f20000100200068
:100a40000001610081816100f00f200001002000a1
:100a5000800f5100818f5900140032004e409000e9
:100a60000000fb00cf80de0002a025000202b800db
:100a7000222620000283b90005017800060141000a
:100a800003a025000388b90000014100820278001c
:100a900024079800350798003e00900070088800f1
:100aa000ae0090006108880011e1a800400120001c
:100ab000c01188000000280080118800004020003c
:100ac0009011880068004700bf0007000e489000a2
:100ad0000000fb00001798008e119000e38f51007a
:100ae0002a0032000e109000e30f500007003c0077
:100af0008e1090000100e000ae0032008e119000d8
:100b0000e28f51000f003200ac0037000e10900051
:100b1000e80f50007c0032008e109000e88f5000eb
:100b200004003c008e119000e78f5100530032000a
:100b3000a20037000e109000e90f5000360032007e
:100b40009e0037006a0047009f0007006a004700c8
:100b50000000e8009c0007006a0047000080e800f1
:100b6000990007000040eb00504f98005e01900094
:100b7000ee01900000802000b90007000160200015
:100b800000802000dc000700ceff37006e00470029
:100b90008d0007006e0047000000e8008a00070093
:100ba0006e0047000080e800870007000040eb006f
:100bb000105798000000eb00100f98009e0890005e
:100bc000f05f2000808f500008003c001e0890005d
:100bd00001802000008040007b0007001e0890007c
:100be0000000e800100f9800f4ff370022042400f2
:100bf000fe0090000e0890005aff07007e01900052
:100c00008e09900000802000d900070010c0b300ba
:100c1000cc000700abff370000002000f10f2000e0
:100c2000200f9800310f9800ae0890003e08900009
:100c300045ff0700400f9800510f980078004700cb
:100c400041002000ac00070020002000f10f200030
:100c5000200f9800310f9800ae0890003e089000d9
:100c600039ff0700400f9800510f980078004700a7
:100c700041002000a000070092ff37000000eb00b9
:100c8000100f98001e089000f70f50008dff3c00d9
:100c90007201470012007800800078000380200075
:100ca000838040000000e80000097800010078001f
:100cb00045000700720147001200780080007800ac
:100cc00003802000838040000000e80000097800d5
:100cd000010078003c000700720147001200780014
:100ce0008000780003802000838040000000e8003e
:100cf00000097800010078003300070010c0b3003d
:100d000090000700dfff37000000eb00100f980095
:100d100000002000810f2000200f9800310f980064
:100d20001e089000f70f500020003c001e089000a5
:100d300001802000010040001004e00011003a0092
:100d40001e0890001380200003004000104078002f
:100d5000405f98001e0890002180200001004000a4
:100d600010407800505f9800ee0990007e099000d6
:100d7000ae0890003e089000effe0700000024003f
:100d8000e2fe07001e08900063004000100f98006c
:100d90002e089000be08900062004000e0804800ed
:100da000200f9800310f9800ddff3700eafe0700a2
:100db00044ff3700e8fe070042ff37000040eb0029
:100dc000600007003fff37000200fa00000f7800c4
:100dd00085c0bf000080fb0061006000e10f500093
:100de00004003a009e0078000040eb008048780044
:100df0001900370032c2bf000080fb004200de0055
:100e00000080fb0061006000e10f5000f0ff320045
:100e100032c2bf000080fb000000d1000080fb0058
:100e200061006000e10f500002003a003222a90088
:100e3000e7ff370032c2bf000080fb0061006000a6
:100e4000e10f5000e2ff3a0011e1a9009e00780096
:100e5000b0118000804878000080fa000000060091
:100e60000c00fa00000f7800120798002307980082
:100e70000000eb0030079800be009000f01f20003b
:100e8000808f50001a003c009e0090002e009000c1
:100e9000adfe070040079800510798001e0078003b
:100ea000ae489000014878001e00e8009e4890007f
:100eb000014878001e80e8008e48900001487800c4
:100ec0001e007800630f40001e009000ae009000ee
:100ed00062004000e0804800100798002107980059
:100ee0003e0090000000e80030079800e2ff370065
:100ef0000080fa00000006000600fa00000f7800eb
:100f0000110798000000eb0020079800ae00900049
:100f10001e009000808f500008003d002e009000c1
:100f20001e00400010407800060007002e009000d0
:100f30000000e80020079800f4ff37000080fa0066
:100f4000000006000200fa00004f780033c2bf0024
:100f50000080fb00610060000000e000fbff320049
:100f60001e00fb00a01188000080fa0000000600af
:100f70000e00fa00000f780012079800230798006f
:100f80000000eb00300798000000eb0040079800dd
:100f9000be009000f01f2000808f50002d003c000c
:100fa0004e0090001e00400010407800204f980036
:100fb0004e0090001e0040000000e8001040780045
:100fc000304f98004e0090001e0040000080e80066
:100fd00010407800404f98000040eb00504f9800c0
:100fe0004e0090006300400040079800de01900032
:100ff0006e0190009e0090002e0090004efe0700b3
:101000003e0090000000e000080032003e0090002a
:101010008000e800f0032000008060000000e00095
:1010200002003a001000240038fe07001e00900065
:10103000ae00900062004000e08048001007980079
:10104000210798003e0090000000e800300798005b
:0c105000cfff37000080fa00000006000f
:020000040000fa
:0200000401f009
:04000800ffff0000f6
:020000040000fa
:0200000401f009
:04000c00fbff0000f6
:020000040000fa
:0200000401f009
:04001000bdff000030
:020000040000fa
:0200000401f009
:040014007fff00006a
:020000040000fa
:0200000401f009
:04001800ffff0000e6
:020000040000fa
:1000080036080000360800003608000036080000f0
:1000180036080000360800003608000036080000e0
:1000280036080000360800003608000036080000d0
:1000380036080000360800003608000036080000c0
:020000040000fa
:020000040000fa
:10105c000008000002060000000000000000000074
:020000040000fa
:04106c000000fe0082
:00000001FF
